:100000000C9432010C945A010C945A010C945A012C
:100010000C945A010C945A010C945A010C945A01F4
:100020000C945A010C945A010C945A010C945A01E4
:100030000C945A010C945A010C945A010C945A01D4
:100040000C942B030C945A010C945A010C94BF038A
:100050000C945A010C945A010C945A010C945A01B4
:100060000C945A010C945A01000000000000005F3B
:1000700000000007000700147F147F14242A7F2A41
:10008000122313086462364955225000050300000C
:10009000001C2241000041221C00082A1C2A0808DA
:1000A000083E0808005030000008080808080060F2
:1000B00060000020100804023E5149453E00427F86
:1000C000400042615149462141454B311814127F8D
:1000D0001027454545393C4A494930017109050316
:1000E0003649494936064949291E0036360000007E
:1000F000563600000008142241141414141441222E
:100100001408000201510906324979413E7E11115D
:10011000117E7F494949363E414141227F4141227A
:100120001C7F494949417F090901013E4141513242
:100130007F0808087F00417F41002040413F017F48
:10014000081422417F404040407F0204027F7F0428
:1001500008107F3E4141413E7F090909063E415159
:10016000215E7F09192946464949493101017F012C
:10017000013F4040403F1F2040201F7F2018207F2C
:100180006314081463030478040361514945430070
:10019000007F4141020408102041417F0000040219
:1001A0000102044040404040000102040020545439
:1001B00054787F48444438384444442038444448C0
:1001C0007F3854545418087E090102081454543CD2
:1001D0007F0804047800447D40002040443D000036
:1001E0007F10284400417F40007C041804787C087C
:1001F00004047838444444387C1414140808141453
:10020000187C7C080404084854545420043F44409B
:10021000203C4040207C1C2040201C3C4030403C86
:1002200044281028440C5050503C4464544C442002
:10023000555455783A44443A003A40403A00000850
:1002400036410000007F00000041360800143E5592
:10025000412208082A1C08081C2A08080000070573
:100260000700450511241FBECFEFD8E0DEBFCDBF8C
:1002700013E0A0E0B1E0EEE0FBE002C005900D92DB
:10028000A234B107D9F723E0A2E4B3E001C01D9284
:10029000AB38B207E1F711E0C2E3D1E004C0219727
:1002A000FE010E944A05C133D107C9F70E94080523
:1002B0000C9485050C940000FC016083128211826D
:1002C00081E085830895462F60E0FC0180810C94D5
:1002D0008104CF93DF93EC0161E20E94630160E04F
:1002E000CE010E9463016FE7CE010E94630162E2CA
:1002F000CE010E94630160E0CE010E94630163E0D1
:10030000CE010E9463010E9441048881880F0E94EF
:100310005B0480E40E945B04C0E0D1E089910E940C
:100320005B0483E0C030D807C9F7DF91CF910C940C
:100330007904CF93DF93EC0161E20E94630160E0F6
:10034000CE010E9463016FE7CE010E94630162E269
:10035000CE010E94630160E0CE010E94630163E070
:10036000CE010E946301E0E0F1E0119283E0E03011
:10037000F807D9F71A8219821B821C82DF91CF916C
:100380000895CF93DF93EC016EEA0E94630165ED5F
:10039000CE010E94630160E8CE010E94630168EA19
:1003A000CE010E9463016FE1CE010E94630163ED03
:1003B000CE010E94630160E0CE010E94630160E40F
:1003C000CE010E9463016DE8CE010E94630164E1E9
:1003D000CE010E94630160E2CE010E94630160E0F1
:1003E000CE010E94630161EACE010E94630168ECC4
:1003F000CE010E9463016AEDCE010E94630162E0BA
:10040000CE010E94630161E8CE010E9463016FE8A2
:10041000CE010E94630169EDCE010E94630161EF8C
:10042000CE010E9463016BEDCE010E94630160E486
:10043000CE010E94630164EACE010E94630166EA74
:10044000CE010E9463016EE2CE010E9463016FEA59
:10045000CE010E946301CE01DF91CF910C949901EE
:10046000FC0170E080E8489F600D711D11247283CB
:100470006183CB01880F892F881F990B9195838306
:100480006F77648308958F929F92AF92BF92CF92BD
:10049000DF92EF92FF920F931F93CF93DF93EC01C4
:1004A0008D81813041F0823009F0AEC08B01912CFA
:1004B00085E0882E8BC0A0E0B5E0FB01EA0FF11DBE
:1004C0002081222309F4A0C0022E000C330B2052FD
:1004D0003109B29FA001B39F500D112480E090E03C
:1004E00029813A812115E2E03E0780F4FC01E40F06
:1004F000F51FE859FF4F149120503F4FF901108329
:1005000029813A812F5F3F4F3A83298301968530B5
:10051000910531F7AF5FD1CF89819A818115F2E0E2
:100520009F0708F04AC0F701EC0DFD1DE859FF4F89
:10053000E4913E2F3F70E295EF7020E0E3FF58C05A
:100540004B2D4360B42E33FF57C0FA2DF360AF2E0E
:10055000233031F0BB0CBB0CEE0FAA0CAA0C330FEE
:100560002F5F243059F7FC01E050FF4FA082E98152
:10057000FA81E050FF4FA182E981FA81E058FE4FF5
:10058000B082E981FA81EF57FE4FB08289819A816A
:1005900002969A8389834D818F7799275BEF540365
:1005A0009001112420583F4F2817390730F48B81D0
:1005B000480F60E0CE010E9430028FEFE81AF80A7F
:1005C000E5E0EE16F10409F0A7CF9394F801E90DE8
:1005D000F11D80818823A1F0082E000C990B8097D3
:1005E000889E6001899ED00C1124E12CF12C94CFBF
:1005F0005B2D5C7FB52EA7CF4A2D4C7FA42EA8CFB4
:1006000080E091E09A838983DF91CF911F910F91D0
:10061000FF90EF90DF90CF90BF90AF909F908F9022
:100620000895FC0165830895FC01418152819A017E
:10063000260F311D211582E0380708F03250328331
:10064000218394819F7794839381991F9927991F80
:100650009383CA0108951F920F920FB60F9211242F
:100660000F931F932F933F934F935F936F937F93BA
:100670008F939F93EF93809142039091430380580F
:100680009F4F409148035091490360914A037091F4
:100690004B038A019B010F5F1F4F2F4F3F4F893E36
:1006A000E3E09E0728F0885E9340B901A801F1CFEE
:1006B000909343038093420340934803509349032C
:1006C00060934A0370934B03EF919F918F917F91B9
:1006D0006F915F914F913F912F911F910F910F90CB
:1006E0000FBE0F901F90189514BC82E085BD81E06D
:1006F00080936E00789408950E947403609148037B
:100700007091490380914A0390914B030895CF92D1
:10071000DF92EF92FF926B017C010E947403809143
:10072000480390914903A0914A03B0914B038093F1
:10073000440390934503A0934603B09347030E945C
:1007400074038091480390914903A0914A03B091AA
:100750004B034091440350914503609146037091CF
:100760004703841B950BA60BB70B8C159D05AE0597
:10077000BF0528F3FF90EF90DF90CF9008951F9270
:100780000F920FB60F9211242F933F934F935F93C5
:100790006F937F938F939F93AF93BF93EF93FF9349
:1007A000E0914D03F0914E038081882361F08093A6
:1007B000C60080914D0390914E03019690934E0395
:1007C00080934D030CC08091C1008F7D8093C10048
:1007D0008091C100877F8093C10010924C0362E03A
:1007E00070E080E090E00E948703FF91EF91BF915D
:1007F000AF919F918F917F916F915F914F913F91B9
:100800002F910F900FBE0F901F901895F894109293
:10081000C50083E38093C4001092C00088E28093F7
:10082000C100E2ECF0E080818660808378940895D6
:100830000C940604CF93C82F0E9406048091C00038
:1008400085FFFCCFC093C600CF91089520914C0343
:10085000211109C021E020934C0390934E03809313
:100860004D030C940604089580E093E00C94260454
:100870001092B90088E48093B80084E08093BC00B3
:1008800008950E94380484EA8093BC008091BC00E3
:1008900087FFFCCF8091B900887F80934F03883019
:1008A00041F0803131F08CE193E00E94260481E038
:1008B000089580E008958093BB0084E88093BC0095
:1008C0008091BC0087FFFCCF089584EC8093BC002E
:1008D0008091BC0087FFFCCF8091BB00089584E825
:1008E0008093BC008091BC0087FFFCCF8091BB004F
:1008F000089584E98093BC008091BC0084FDFCCF06
:1009000008951F93CF93DF93182FD62FC42F0E94E3
:100910004104812F880F0E945B048D2F0E945B048D
:100920008C2F0E945B04DF91CF911F910C9479046E
:10093000CF93DF93C82FD62F0E9441048C2F880FAE
:100940000E945B048D2F0E945B040E9441048C2F47
:10095000880F81600E945B040E946F04C82F0E9470
:1009600079048C2FDF91CF910895FF920F931F93FD
:10097000CF93DF93D82FF62EC42F89010E94410414
:100980008D2F880F0E945B048F2D0E945B040E94B4
:1009900041048D2F880F81600E945B0480E04C2F02
:1009A00050E04150510964EC282F30E024173507FE
:1009B00074F46093BC009091BC0097FFFCCF9091C1
:1009C000BB00F801E20FF31F90838F5FEDCF84E847
:1009D0008093BC008091BC0087FFFCCF8091BB005E
:1009E000F801E20FF31F8083DF91CF911F910F91E8
:1009F000FF900C9479048091B90008954AE062E672
:100A000073E00E9450050E94260482E693E0089558
:100A100085E893E00E94C1018DE293E00E942604E4
:100A200040E06BE688E60E94810485E893E00E943E
:100A3000990163E488E60E949804982F10926F034E
:100A40008093700340E162E673E080E00E9450050D
:100A5000BC0185E893E00E9443028AE393E00E9490
:100A6000260485E893E00E94690164E670E080E076
:100A700090E00E948703809160039091610301964A
:100A80009093610380936003D0CF6CE385E893E09B
:100A90000C945C01EE0FFF1F0590F491E02D09947A
:100AA000BB274A3031F4992322F4BDE29095819519
:100AB0009F4F0C945C05BB27FB015527AA27880F85
:100AC000991FAA1FA41710F0A41B83955051B9F7C2
:100AD000A05DAA3308F0A95DA193009779F7B11141
:100AE000B1931192CB010C947505DC01FC01672FC9
:100AF00071917723E1F7329704C07C916D937083F5
:0E0B00006291AE17BF07C8F30895F894FFCFB7
:100B0E0000000000000000000000000000000000D7
:100B1E0000000000000000000000000000000000C7
:100B2E0000000000000000000000000000000000B7
:100B3E0000000000000000000000000000000000A7
:100B4E000000000000000000000000000000000097
:100B5E000000000000000000000000000000000087
:100B6E000000000000000000000000000000000077
:100B7E000000000000000000000000000000000067
:100B8E000000000000000000000000000000000057
:100B9E000000000000000000000000000000000047
:100BAE000000000000000000000000000000000037
:100BBE000000000000000000000000000000000027
:100BCE000000000000000000000000000000000017
:100BDE000000000000000000000000000000000007
:100BEE0000000000000000000000000000000000F7
:100BFE0000000000000000000000000000000000E7
:100C0E0000000000000000000000000000000000D6
:100C1E0000000000000000000000000000000000C6
:100C2E0000000000000000000000000000000000B6
:100C3E0000000000000000000000000000000000A6
:100C4E000000000000000000000000000000000096
:100C5E000000000000000000000000000000000086
:100C6E000000000000000000000000000000000076
:100C7E000000000000000000000000000000000066
:100C8E000000000000000000000000000000000056
:100C9E000000000000000000000000000000000046
:100CAE000000000000000000000000000000000036
:100CBE000000000000000000000000000000000026
:100CCE000000000000000000000000000000000016
:100CDE000000000000000000000000000000000006
:100CEE001F2040201F002141454B31000000000015
:100CFE0000000000000000000000000000000000E6
:100D0E0054657374696E6720555341525420636F56
:100D1E006D6D756E69636174696F6E00545749200D
:100D2E007374617274206572726F72200067792D10
:100D3E003532312074657374200068656C6C6F0AEF
:020D4E000000A3
:00000001FF
