:100000000C9432010C945A010C945A010C945A012C
:100010000C945A010C945A010C945A010C945A01F4
:100020000C945A010C945A010C945A010C945A01E4
:100030000C945A010C945A010C945A010C945A01D4
:100040000C942B030C945A010C945A010C94BF038A
:100050000C945A010C945A010C945A010C945A01B4
:100060000C945A010C945A01000000000000005F3B
:1000700000000007000700147F147F14242A7F2A41
:10008000122313086462364955225000050300000C
:10009000001C2241000041221C00082A1C2A0808DA
:1000A000083E0808005030000008080808080060F2
:1000B00060000020100804023E5149453E00427F86
:1000C000400042615149462141454B311814127F8D
:1000D0001027454545393C4A494930017109050316
:1000E0003649494936064949291E0036360000007E
:1000F000563600000008142241141414141441222E
:100100001408000201510906324979413E7E11115D
:10011000117E7F494949363E414141227F4141227A
:100120001C7F494949417F090901013E4141513242
:100130007F0808087F00417F41002040413F017F48
:10014000081422417F404040407F0204027F7F0428
:1001500008107F3E4141413E7F090909063E415159
:10016000215E7F09192946464949493101017F012C
:10017000013F4040403F1F2040201F7F2018207F2C
:100180006314081463030478040361514945430070
:10019000007F4141020408102041417F0000040219
:1001A0000102044040404040000102040020545439
:1001B00054787F48444438384444442038444448C0
:1001C0007F3854545418087E090102081454543CD2
:1001D0007F0804047800447D40002040443D000036
:1001E0007F10284400417F40007C041804787C087C
:1001F00004047838444444387C1414140808141453
:10020000187C7C080404084854545420043F44409B
:10021000203C4040207C1C2040201C3C4030403C86
:1002200044281028440C5050503C4464544C442002
:10023000555455783A44443A003A40403A00000850
:1002400036410000007F00000041360800143E5592
:10025000412208082A1C08081C2A08080000070573
:100260000700EF0611241FBECFEFD8E0DEBFCDBFE1
:1002700013E0A0E0B1E0EAE4FEE002C005900D92D8
:10028000A83AB107D9F723E0A8EAB3E001C01D926C
:10029000A93CB207E1F711E0C2E3D1E004C0219725
:1002A000FE010E94F306C133D107C9F70E94A406DC
:1002B0000C9423070C940000FC011282118221E0AF
:1002C00025830895462F60E0FC0180810C94E905A8
:1002D000CF93DF93EC0161E20E94620160E0CE0106
:1002E0000E9462016FE7CE010E94620162E2CE01CC
:1002F0000E94620160E0CE010E94620163E0CE01D3
:100300000E9462010E94BB058881880F0E94C70578
:1003100080E40E94C705C0E0D1E089910E94C70532
:1003200083E0C030D807C9F7DF91CF910C94E10585
:10033000CF93DF93EC0161E20E94620160E0CE01A5
:100340000E9462016FE7CE010E94620162E2CE016B
:100350000E94620160E0CE010E94620163E0CE0172
:100360000E946201E0E0F1E0119283E0E030F807E2
:10037000D9F71A8219821B821C82DF91CF910895CE
:10038000CF93DF93EC0168836EEA0E94620165ED12
:10039000CE010E94620160E8CE010E94620168EA1B
:1003A000CE010E9462016FE1CE010E94620163ED05
:1003B000CE010E94620160E0CE010E94620160E411
:1003C000CE010E9462016DE8CE010E94620164E1EB
:1003D000CE010E94620160E2CE010E94620160E0F3
:1003E000CE010E94620161EACE010E94620168ECC6
:1003F000CE010E9462016AEDCE010E94620162E0BC
:10040000CE010E94620161E8CE010E9462016FE8A4
:10041000CE010E94620169EDCE010E94620161EF8E
:10042000CE010E9462016BEDCE010E94620160E488
:10043000CE010E94620164EACE010E94620166EA76
:10044000CE010E9462016EE2CE010E9462016FEA5B
:10045000CE010E946201CE01DF91CF910C949801F0
:10046000FC0170E080E8489F600D711D11247283CB
:100470006183CB01880F892F881F990B9195838306
:100480006F77648308958F929F92AF92BF92CF92BD
:10049000DF92EF92FF920F931F93CF93DF93EC01C4
:1004A0008D81813041F0823009F0AEC08B01912CFA
:1004B00085E0882E8BC0A0E0B5E0FB01EA0FF11DBE
:1004C0002081222309F4A0C0022E000C330B2052FD
:1004D0003109B29FA001B39F500D112480E090E03C
:1004E00029813A812115E2E03E0780F4FC01E40F06
:1004F000F51FE859FF4F149120503F4FF901108329
:1005000029813A812F5F3F4F3A83298301968530B5
:10051000910531F7AF5FD1CF89819A818115F2E0E2
:100520009F0708F04AC0F701EC0DFD1DE859FF4F89
:10053000E4913E2F3F70E295EF7020E0E3FF58C05A
:100540004B2D4360B42E33FF57C0FA2DF360AF2E0E
:10055000233031F0BB0CBB0CEE0FAA0CAA0C330FEE
:100560002F5F243059F7FC01E050FF4FA082E98152
:10057000FA81E050FF4FA182E981FA81E058FE4FF5
:10058000B082E981FA81EF57FE4FB08289819A816A
:1005900002969A8389834D818F7799275BEF540365
:1005A0009001112420583F4F2817390730F48B81D0
:1005B000480F60E0CE010E9430028FEFE81AF80A7F
:1005C000E5E0EE16F10409F0A7CF9394F801E90DE8
:1005D000F11D80818823A1F0082E000C990B8097D3
:1005E000889E6001899ED00C1124E12CF12C94CFBF
:1005F0005B2D5C7FB52EA7CF4A2D4C7FA42EA8CFB4
:1006000080E091E09A838983DF91CF911F910F91D0
:10061000FF90EF90DF90CF90BF90AF909F908F9022
:100620000895FC0165830895FC01418152819A017E
:10063000260F311D211582E0380708F03250328331
:10064000218394819F7794839381991F9927991F80
:100650009383CA0108951F920F920FB60F9211242F
:100660000F931F932F933F934F935F936F937F93BA
:100670008F939F93EF938091AC039091AD0380583B
:100680009F4F4091B2035091B3036091B4037091B6
:10069000B5038A019B010F5F1F4F2F4F3F4F893ECC
:1006A000E3E09E0728F0885E9340B901A801F1CFEE
:1006B0009093AD038093AC034093B2035093B30384
:1006C0006093B4037093B503EF919F918F917F91E5
:1006D0006F915F914F913F912F911F910F910F90CB
:1006E0000FBE0F901F90189514BC82E085BD81E06D
:1006F00080936E00789408950E9474036091B20311
:100700007091B3038091B4039091B5030895CF9293
:10071000DF92EF92FF926B017C010E947403809143
:10072000B2039091B303A091B403B091B503809349
:10073000AE039093AF03A093B003B093B1030E94B4
:1007400074038091B2039091B303A091B403B0916C
:10075000B5034091AE035091AF036091B003709127
:10076000B103841B950BA60BB70B8C159D05AE052D
:10077000BF0528F3FF90EF90DF90CF9008951F9270
:100780000F920FB60F9211242F933F934F935F93C5
:100790006F937F938F939F93AF93BF93EF93FF9349
:1007A000E091B703F091B8038081882361F08093D2
:1007B000C6008091B7039091B80301969093B80357
:1007C0008093B7030CC08091C1008F7D8093C100DE
:1007D0008091C100877F8093C1001092B60361E0D1
:1007E00070E080E090E00E948703FF91EF91BF915D
:1007F000AF919F918F917F916F915F914F913F91B9
:100800002F910F900FBE0F901F901895F894109293
:10081000C50083E38093C4001092C00088E28093F7
:10082000C100E2ECF0E080818660808378940895D6
:100830000C940604CF93C82F0E9406048091C00038
:1008400085FFFCCFC093C600CF9108952091B603D9
:10085000211109C021E02093B6039093B80380933F
:10086000B7030C940604089580E093E00C942604EA
:1008700061E088E00E94500461E088E00E940C057D
:1008800068EE73E080E090E00E94870360E088E01B
:100890000E940C0568EE73E080E090E00C94870302
:1008A0008E3018F4883028F03EC0843108F478C0C7
:1008B0000895611110C04AB121E030E0B90102C0D1
:1008C000660F771F8A95E2F7CB018095942F9823C6
:1008D0009AB99BB111C0613091F44AB121E030E086
:1008E000B90102C0660F771F8A95E2F7CB01942FFA
:1008F000982B9AB99BB1809589238BB90895623062
:1009000009F089C04AB121E030E0B90102C0660FA8
:10091000771F8A95E2F7CB01962F909594239AB989
:100920009BB1892BEACF611111C044B1885021E0FD
:1009300030E0B90102C0660F771F8A95E2F7CB015C
:100940008095942F982394B995B112C0613091F499
:1009500044B1885021E030E0B90102C0660F771F32
:100960008A95E2F7CB01942F982B94B995B1809595
:10097000892314C0623009F04EC044B1885021E090
:1009800030E0B90102C0660F771F8A95E2F7CB010C
:10099000962F9095942394B995B1892B85B9089594
:1009A000611111C047B18E5021E030E0B90102C0A1
:1009B000660F771F8A95E2F7CB018095942F9823D5
:1009C00097B998B112C0613091F447B18E5021E0CF
:1009D00030E0B90102C0660F771F8A95E2F7CB01BC
:1009E000942F982B97B998B18095892313C06230C2
:1009F00091F447B18E5021E030E0B90102C0660F9A
:100A0000771F8A95E2F7CB01962F9095942397B99B
:100A100098B1892B88B908958E3018F4883028F061
:100A20002DC0843108F455C008952AB130E0082E55
:100A300002C0359527950A94E2F720FF73C066231C
:100A400079F0613009F06EC04BB121E030E0B901BE
:100A500002C0660F771F8A95E2F7CB01842B0CC08A
:100A60004BB121E030E0B90102C0660F771F8A95D3
:100A7000E2F7CB01809584238BB9089524B190E0EF
:100A8000089730E0082E02C0359527950A94E2F7C2
:100A900020FF48C0662379F0613009F043C045B1BA
:100AA00021E030E0B90102C0660F771F8A95E2F7B6
:100AB000CB01842B0CC045B121E030E0B90102C06C
:100AC000660F771F8A95E2F7CB018095842385B95D
:100AD000089527B190E00E9730E0082E02C03595BA
:100AE00027950A94E2F720FF1DC0662371F061305C
:100AF000C9F448B121E030E0B90102C0660F771FA8
:100B00008A95E2F7CB01842B0CC048B121E030E09C
:100B1000B90102C0660F771F8A95E2F7CB01809575
:100B2000842388B908958E3028F4883048F429B198
:100B300030E009C0843180F426B130E08E5003C02B
:100B400023B130E08850A90102C0559547958A9598
:100B5000E2F7CA018170089580E008958CE193E086
:100B60000E9426041092B90088E48093B80084E0C3
:100B70008093BC00089585E293E00E94260484EAF5
:100B80008093BC008091BC0087FFFCCF0895CF9379
:100B9000C82F8CE293E00E94260440E169EB73E0E9
:100BA0008C2F90E00E94F9060E942604C093BB009F
:100BB00084E88093BC008091BC0087FFFCCFCF917C
:100BC000089582E393E00E94260484E98093BC00A8
:100BD00008951F93CF93DF93182FD62FC42F88E348
:100BE00093E00E9426040E94BB05812F880F0E947B
:100BF000C7058D2F0E94C7058C2F0E94C705DF9166
:100C0000CF911F910C94E105CF93DF93C82FD62F7E
:100C10000E94BB058C2F880F0E94C7058D2F0E9454
:100C2000C7050E94BB058C2F880F81600E94C705F5
:100C300084E88093BC008091BC0087FFFCCFC0910A
:100C4000BB000E94E1058C2FDF91CF910895FF92A8
:100C50000F931F93CF93DF93D82FF62EC42F8901C4
:100C60000E94BB058D2F880F0E94C7058F2D0E9403
:100C7000C7050E94BB058D2F880F81600E94C705A4
:100C800080E04C2F50E04150510964EC282F30E0B7
:100C90002417350774F46093BC009091BC0097FF53
:100CA000FCCF9091BB00F801E20FF31F90838F5FA0
:100CB000EDCF84E88093BC008091BC0087FFFCCF1F
:100CC0008091BB00F801E20FF31F8083DF91CF9189
:100CD0001F910F91FF900C94E10597B1906397B924
:100CE0004498459897E086FD02C0449801C0449A14
:100CF000459A4598880F9150B1F74498459A459880
:100D0000459A45980895459A449A089598E087FD34
:100D100002C0449801C0449A459A4598880F915062
:100D2000B1F7459A45980895CF93DF93D62FC42FF6
:100D30000E946D068D2F0E9486068C2F0E948606CB
:100D4000DF91CF910C9483060E94AE058FE393E070
:100D50000E9426040E94BB0585E293E00E942604BF
:100D600088E70E94C70585E493E00E94260480E09E
:100D70000E94C70589E593E00E9426048FEA0E943D
:100D8000C70580E793E00E9426040E94E1058AE7F8
:100D900093E00E9426046CE383EC93E00E94C00180
:100DA0006FE773E083EC93E00E94430283EC93E0EF
:100DB0000E94680160ED77E080E090E00E94870388
:100DC00083EC93E00E9498016EE973E083EC93E07A
:100DD0000E94430283EC93E00E946801FFCF83EC02
:100DE00093E00C945C01EE0FFF1F0590F491E02D51
:100DF0000994BB27FB015527AA27880F991FAA1F13
:100E0000A41710F0A41B83955051B9F7A05DAA3325
:100E100008F0A95DA193009779F7B111B1931192F0
:100E2000CB010C941307DC01FC01672F7191772330
:100E3000E1F7329704C07C916D9370836291AE1795
:0A0E4000BF07C8F30895F894FFCF30
:100E4A000000000000000000000000000000000098
:100E5A000000000000000000000000000000000088
:100E6A000000000000000000000000000000000078
:100E7A000000000000000000000000000000000068
:100E8A000000000000000000000000000000000058
:100E9A000000000000000000000000000000000048
:100EAA000000000000000000000000000000000038
:100EBA000000000000000000000000000000000028
:100ECA000000000000000000000000000000000018
:100EDA000000000000000000000000000000000008
:100EEA0000000000000000000000000000000000F8
:100EFA0000000000000000000000000000000000E8
:100F0A0000000000000000000000000000000000D7
:100F1A0000000000000000000000000000000000C7
:100F2A0000000000000000000000000000000000B7
:100F3A0000000000000000000000000000000000A7
:100F4A000000000000000000000000000000000097
:100F5A000000000000000000000000000000000087
:100F6A000000000000000000000000000000000077
:100F7A000000000000000000000000000000000067
:100F8A000000000000000000000000000000000057
:100F9A000000000000000000000000000000000047
:100FAA000000000000000000000000000000000037
:100FBA000000000000000000000000000000000027
:100FCA000000000000000000000000000000000017
:100FDA000000000000000000000000000000000007
:100FEA0000000000000000000000000000000000F7
:100FFA0000000000000000000000000000000000E7
:10100A0000000000000000000000000000000000D6
:10101A0000000000000000000000000000000000C6
:10102A001F2040201F002141454B310000000000D5
:10103A0000000000000000000000000000000000A6
:10104A0054657374696E6720555341525420636F17
:10105A006D6D756E69636174696F6E0054574920CE
:10106A00696E6974007374617274200073656E64CA
:10107A00200073746F700A007772697465200069C2
:10108A006E6974200073656E6420736C61766520E6
:10109A0061646472657373200073656E6420636FA4
:1010AA006E74726F6C207265676973746572200062
:1010BA0073656E6420646174610073746F70006B91
:1010CA006F616C6173206172652062656175746914
:1010DA0066756C20637265617475726573006172FE
:0810EA006520746865790000BF
:00000001FF
