:100000000C9434000C943E000C943E000C943E0082
:100010000C943E000C943E000C943E000C943E0068
:100020000C943E000C943E000C943E000C943E0058
:100030000C943E000C943E000C943E000C943E0048
:100040000C943E000C943E000C943E000C943E0038
:100050000C943E000C943E000C943E000C943E0028
:100060000C943E000C943E0011241FBECFEFD8E04C
:10007000DEBFCDBF0E949E010C94A9010C9400002C
:100080008E3018F4883028F03EC0843108F478C0EF
:100090000895611110C04AB121E030E0B90102C0F9
:1000A000660F771F8A95E2F7CB018095942F9823EE
:1000B0009AB99BB111C0613091F44AB121E030E0AE
:1000C000B90102C0660F771F8A95E2F7CB01942F22
:1000D000982B9AB99BB1809589238BB9089562308A
:1000E00009F089C04AB121E030E0B90102C0660FD1
:1000F000771F8A95E2F7CB01962F909594239AB9B2
:100100009BB1892BEACF611111C044B1885021E025
:1001100030E0B90102C0660F771F8A95E2F7CB0184
:100120008095942F982394B995B112C0613091F4C1
:1001300044B1885021E030E0B90102C0660F771F5A
:100140008A95E2F7CB01942F982B94B995B18095BD
:10015000892314C0623009F04EC044B1885021E0B8
:1001600030E0B90102C0660F771F8A95E2F7CB0134
:10017000962F9095942394B995B1892B85B90895BC
:10018000611111C047B18E5021E030E0B90102C0C9
:10019000660F771F8A95E2F7CB018095942F9823FD
:1001A00097B998B112C0613091F447B18E5021E0F7
:1001B00030E0B90102C0660F771F8A95E2F7CB01E4
:1001C000942F982B97B998B18095892313C06230EA
:1001D00091F447B18E5021E030E0B90102C0660FC2
:1001E000771F8A95E2F7CB01962F9095942397B9C4
:1001F00098B1892B88B908958E3018F4883028F08A
:100200002DC0843108F455C008952AB130E0082E7D
:1002100002C0359527950A94E2F720FF73C0662344
:1002200079F0613009F06EC04BB121E030E0B901E6
:1002300002C0660F771F8A95E2F7CB01842B0CC0B2
:100240004BB121E030E0B90102C0660F771F8A95FB
:10025000E2F7CB01809584238BB9089524B190E017
:10026000089730E0082E02C0359527950A94E2F7EA
:1002700020FF48C0662379F0613009F043C045B1E2
:1002800021E030E0B90102C0660F771F8A95E2F7DE
:10029000CB01842B0CC045B121E030E0B90102C094
:1002A000660F771F8A95E2F7CB018095842385B985
:1002B000089527B190E00E9730E0082E02C03595E2
:1002C00027950A94E2F720FF1DC0662371F0613084
:1002D000C9F448B121E030E0B90102C0660F771FD0
:1002E0008A95E2F7CB01842B0CC048B121E030E0C5
:1002F000B90102C0660F771F8A95E2F7CB0180959E
:10030000842388B908958E3028F4883048F429B1C0
:1003100030E009C0843180F426B130E08E5003C053
:1003200023B130E08850A90102C0559547958A95C0
:10033000E2F7CA018170089580E0089561E088E0E5
:100340000E94400061E088E00E94FC0080E090E0B4
:060350000895F894FFCFB0
:00000001FF
