:100000000C94F0010C9419090C94F5080C94180246
:100010000C9418020C9418020C9418020C941802F8
:100020000C9418020C9418020C9418020C941802E8
:100030000C9418020C9418020C9418020C941802D8
:100040000C94E9030C9418020C9418020C947D048F
:100050000C9418020C9418020C9418020C941802B8
:100060000C9418020C94180207634236B79BD8A769
:100070001A39685618AEBAAB558C1D3CB7CC5763CD
:10008000BD6DEDFD753EF6177231BF000000803F7B
:1000900008000000BE922449123EABAAAA2ABECD97
:1000A000CCCC4C3E00000080BEABAAAAAA3E000009
:1000B0000000BF000000803F000000000008417801
:1000C000D3BB4387D1133D190E3CC3BD4282AD2B38
:1000D0003E68EC8276BED98FE1A93E4C80EFFFBE30
:1000E00001C4FF7F3F000000000000407A10F35A77
:1000F00000A0724E18090010A5D4E80000E8764868
:10010000170000E40B54020000CA9A3B000000E113
:10011000F505000080969800000040420F000000A6
:10012000A08601000000102700000000E803000086
:1001300000006400000000000A0000000000010050
:10014000000000002C76D888DC674F0823DFC1DF71
:10015000AE59E1B1B796E5E3E453C63AE651997674
:1001600096E8E6C28426EB898C9B62ED407C6FFCAE
:10017000EFBC9C9F40F2BAA56FA5F490055A2AF7F0
:100180005C936B6CF9676DC11BFCE0E40D47FEF5F9
:1001900020E6B500D0ED902E030094357705008061
:1001A000841E080000204E0A000000C80C333333C0
:1001B000330F986E12831141EF8D2114893BE65560
:1001C00016CFFEE6DB18D1844B381BF77C1D901D43
:1001D000A4BBE424203284725E228100C9F124ECA5
:1001E000A1E53D27000000000000005F00000007BF
:1001F000000700147F147F14242A7F2A1223130877
:10020000646236495522500005030000001C22415B
:10021000000041221C00082A1C2A0808083E080881
:100220000050300000080808080800606000002046
:10023000100804023E5149453E00427F40004261A1
:100240005149462141454B311814127F102745452D
:1002500045393C4A49493001710905033649494944
:1002600036064949291E0036360000005636000081
:10027000000814224114141414144122140800021A
:1002800001510906324979413E7E1111117E7F49A3
:100290004949363E414141227F4141221C7F494923
:1002A00049417F090901013E414151327F08080857
:1002B0007F00417F41002040413F017F08142241DF
:1002C0007F404040407F0204027F7F0408107F3E51
:1002D0004141413E7F090909063E4151215E7F09A6
:1002E000192946464949493101017F01013F4040F2
:1002F000403F1F2040201F7F2018207F63140814D8
:10030000630304780403615149454300007F414180
:10031000020408102041417F000004020102044051
:1003200040404040000102040020545454787F486B
:100330004444383844444420384444487F38545472
:100340005418087E090102081454543C7F08040420
:100350007800447D40002040443D00007F10284448
:1003600000417F40007C041804787C08040478383D
:10037000444444387C14141408081414187C7C0871
:100380000404084854545420043F4440203C404056
:10039000207C1C2040201C3C4030403C442810283D
:1003A000440C5050503C4464544C442055545578AF
:1003B0003A44443A003A40403A00000836410000CE
:1003C000007F00000041360800143E554122080815
:1003D0002A1C08081C2A0808000007050700D80B7B
:1003E00011241FBECFEFD8E0DEBFCDBF13E0A0E0E9
:1003F000B1E0ECEEF4E202C005900D92AA37B1072D
:10040000D9F723E0AAE7B3E001C01D92A63DB207E9
:10041000E1F711E0C0EFD1E004C02197FE010E9496
:10042000040CCF3ED107C9F70E94700B0C947412D4
:100430000C940000FC0160831282118281E08583AC
:100440000895462F60E0FC0180810C946205CF93F3
:10045000DF93EC0161E20E94210260E0CE010E9484
:1004600021026FE7CE010E94210262E2CE010E94CA
:10047000210260E0CE010E94210263E0CE010E94D1
:1004800021020E944E058881880F0E94580580E451
:100490000E945805C0E0D1E089910E94580583E090
:1004A000C030D807C9F7DF91CF910C94E605CF9300
:1004B000DF93EC0161E20E94210260E0CE010E9424
:1004C00021026FE7CE010E94210262E2CE010E946A
:1004D000210260E0CE010E94210263E0CE010E9471
:1004E0002102E0E0F1E0119283E0E030F807D9F773
:1004F0001A8219821B821C82DF91CF910895CF93BB
:10050000DF93EC016EEA0E94210265EDCE010E94AC
:10051000210260E8CE010E94210268EACE010E9419
:1005200021026FE1CE010E94210263EDCE010E9403
:10053000210260E0CE010E94210260E4CE010E940F
:1005400021026DE8CE010E94210264E1CE010E94E9
:10055000210260E2CE010E94210260E0CE010E94F1
:10056000210261EACE010E94210268ECCE010E94C4
:1005700021026AEDCE010E94210262E0CE010E94BA
:10058000210261E8CE010E9421026FE8CE010E94A3
:10059000210269EDCE010E94210261EFCE010E948D
:1005A00021026BEDCE010E94210260E4CE010E9487
:1005B000210264EACE010E94210266EACE010E9475
:1005C00021026EE2CE010E9421026FEACE010E945A
:1005D0002102CE01DF91CF910C945702FC0170E013
:1005E00080E8489F600D711D112472836183CB01E7
:1005F000880F892F881F990B919583836F77648368
:1006000008958F929F92AF92BF92CF92DF92EF9216
:10061000FF920F931F93CF93DF93EC018D81813075
:1006200041F0823009F0AEC08B01912C85E0882E1C
:100630008BC0A0E0B5E0FB01EA0FF11D2081222371
:1006400009F4A0C0022E000C330B20523109B29FD6
:10065000A001B39F500D112480E090E029813A81E0
:100660002115E2E03E0780F4FC01E40FF51FEC5198
:10067000FE4F149120503F4FF901108329813A8198
:100680002F5F3F4F3A83298301968530910531F7DB
:10069000AF5FD1CF89819A818115F2E09F0708F081
:1006A0004AC0F701EC0DFD1DEC51FE4FE4913E2FC9
:1006B0003F70E295EF7020E0E3FF58C04B2D4360A0
:1006C000B42E33FF57C0FA2DF360AF2E233031F034
:1006D000BB0CBB0CEE0FAA0CAA0C330F2F5F2430FF
:1006E00059F7FC01E050FF4FA082E981FA81E05008
:1006F000FF4FA182E981FA81E058FE4FB082E98183
:10070000FA81EF57FE4FB08289819A8102969A83CF
:1007100089834D818F7799275BEF540390011124D2
:1007200020583F4F2817390730F48B81480F60E07D
:10073000CE010E94EE028FEFE81AF80AE5E0EE160D
:10074000F10409F0A7CF9394F801E90DF11D808120
:100750008823A1F0082E000C990B8097889E6001D9
:10076000899ED00C1124E12CF12C94CF5B2D5C7F61
:10077000B52EA7CF4A2D4C7FA42EA8CF80E091E0C4
:100780009A838983DF91CF911F910F91FF90EF9012
:10079000DF90CF90BF90AF909F908F900895FC0115
:1007A00065830895FC01418152819A01260F311D14
:1007B000211582E0380708F032503283218394817A
:1007C0009F7794839381991F9927991F9383CA01D7
:1007D00008951F920F920FB60F9211240F931F933B
:1007E0002F933F934F935F936F937F938F939F9339
:1007F000EF9380917A0390917B0380589F4F4091B3
:1008000080035091810360918203709183038A0178
:100810009B010F5F1F4F2F4F3F4F893EE3E09E0725
:1008200028F0885E9340B901A801F1CF90937B0333
:1008300080937A03409380035093810360938203F3
:1008400070938303EF919F918F917F916F915F914F
:100850004F913F912F911F910F910F900FBE0F90CD
:100860001F90189514BC82E085BD81E080936E00D6
:10087000789408950E9432046091800370918103FE
:1008800080918203909183030895CF92DF92EF923B
:10089000FF926B017C010E94320480918003909151
:1008A0008103A0918203B091830380937C03909392
:1008B0007D03A0937E03B0937F030E943204809156
:1008C000800390918103A0918203B09183034091B2
:1008D0007C0350917D0360917E0370917F03841BA4
:1008E000950BA60BB70B8C159D05AE05BF0528F320
:1008F000FF90EF90DF90CF9008951F920F920FB668
:100900000F9211242F933F934F935F936F937F9395
:100910008F939F93AF93BF93EF93FF93E0918503E2
:10092000F09186038081882361F08093C6008091D6
:1009300085039091860301969093860380938503A7
:100940000CC08091C1008F7D8093C1008091C10057
:10095000877F8093C1001092840362E070E080E0A2
:1009600090E00E944504FF91EF91BF91AF919F915C
:100970008F917F916F915F914F913F912F910F9048
:100980000FBE0F901F901895F8941092C50083E346
:100990008093C4001092C00088E28093C100E2EC12
:1009A000F0E0808186608083789408950C94C4047C
:1009B000CF93C82F0E94C4048091C00085FFFCCF54
:1009C000C093C600CF91089520918403211109C0DE
:1009D00021E02093840390938603809385030C94F5
:1009E000C404089587E393E00C94E40461E088E094
:1009F0000E94C50961E088E00E94810A68EE73E008
:100A000080E090E00E94450460E088E00E94810A56
:100A100068EE73E080E090E00C944504CF93DF93A0
:100A2000EC01862F69834A8360E00E94C50960E07B
:100A30008A810E94C50961E089810E94810A61E082
:100A40008A810E94810A1882DF91CF9108951F93B5
:100A5000CF93DF93EC018A810E94080B182F8981C4
:100A60000E94080BE881EF70110F812B94E0E99F41
:100A7000F0011124E55EFC4FE80FF11D80818883B1
:100A80008073DF91CF911F9108951092B90088E48F
:100A90008093B80084E08093BC0008950E944505CF
:100AA00084EA8093BC008091BC0087FFFCCF08954E
:100AB0008093BB0084E88093BC008091BC0087FFDA
:100AC000FCCF08951F93CF93DF93182FD62FC42FF9
:100AD0000E944E05812F880F0E9458058D2F0E947D
:100AE00058058C2F0E94580584E98093BC00DF9143
:100AF000CF911F910895CF93DF93C82FD62F0E94D7
:100B00004E058C2F880F0E9458058D2F0E94580586
:100B10000E944E058C2F880F81600E94580584E842
:100B20008093BC008091BC0087FFFCCF8091BB000C
:100B300094E99093BC00DF91CF910895FF920F93B9
:100B40001F93CF93DF93D82FF62EC42F89010E94D5
:100B50004E058D2F880F0E9458058F2D0E94580535
:100B60000E944E058D2F880F81600E94580580E0FD
:100B70004C2F50E04150510964EC282F30E02417ED
:100B8000350774F46093BC009091BC0097FFFCCFD4
:100B90009091BB00F801E20FF31F90838F5FEDCFC0
:100BA00084E88093BC008091BC0087FFFCCF8091DB
:100BB000BB00F801E20FF31F808384E98093BC003F
:100BC000DF91CF911F910F91FF90089584E9809359
:100BD000BC000895089581E58CBD8CE284B9089528
:100BE0006EBD0DB407FEFDCF08957EBD0DB407FEAA
:100BF000FDCF6EBD0DB407FEFDCF0895613049F005
:100C000028F0623061F0633081F008958CB5837F05
:100C10000EC08CB5877F8CBD8CB5846008C08CB548
:100C20008B7F8CBD8CB5886002C08CB58C608CBD10
:100C30000895CF92DF92EF92FF921F93CF93DF93AD
:100C4000EC01162F69017A010E94EA05812F90E0DC
:100C50009A83898361E0812F0E94C509C986DA865B
:100C6000EB86FC8680E090E29A8B898B80E090E4B2
:100C70009E878D8780E090EC988B8F87CE010E94B5
:100C8000EB0562E0CE01DF91CF911F91FF90EF90D5
:100C9000DF90CF900C94FE050F931F93CF93DF93BB
:100CA000EC01162F072F60E089810E94810A602FD6
:100CB000CE010E94F005612FCE010E94F00561E097
:100CC0008981DF91CF911F910F910C94810A8F92AE
:100CD0009F92AF92BF92CF92DF92EF92FF92CF930B
:100CE000DF93EC01C984DA84EB84FC84C416D50656
:100CF000E606F70668F4F694E794D794C794CB8297
:100D0000DC82ED82FE8260E070E080E090E11CC059
:100D10004B835C836D837E83CB01BA010E94AB0C55
:100D200020E030E040E85DE40E943E0D4B015C01B4
:100D3000C701B6010E94AB0C9B01AC01C501B40117
:100D40000E940A0C0E947C0C2D853E856B017C0163
:100D50008EE0F694E794D794C7948A95D1F77901F9
:100D6000EC28FD287F73622B732BCE010E944C066A
:100D7000B701CE01DF91CF91FF90EF90DF90CF9040
:100D8000BF90AF909F908F900C944C06FC016381B4
:100D90007481858196810895FC0177FF03C01086D8
:100DA00017820BC0611580E178072CF08FEF9FE070
:100DB0009087878302C07087678367817085878586
:100DC0009089682B792BCF010C944C06FC0187810C
:100DD00090850895FC01818992890895FC016189BB
:100DE00072890C944C065F73FC01528B418B0C94FE
:100DF000EE06FC016130710589F034F4672BC9F40B
:100E0000818992898F7313C06230710561F06330FC
:100E1000710579F481899289806C09C081899289F0
:100E20008F77806404C0818992898F7B8068928BE0
:100E3000818BCF010C94EE066115710529F4FC013C
:100E4000218932893E7F07C06130710531F4FC0190
:100E5000218932893160328B218B0C94EE06FC01A2
:100E60006130710549F06230710559F0672B79F4F2
:100E7000818992898D7D09C0818992898F7D826067
:100E800004C0818992898D7F8062928B818BCF0192
:100E90000C94EE06FC016115710561F4818992895B
:100EA000937F928B818B80E090E49687858780E0AA
:100EB00090EC0EC06130710569F4818992899C6063
:100EC000928B818B80E090E89687858780E090ED1B
:100ED000908B8787CF010C94EE068F929F92AF92F2
:100EE000BF92CF92DF92EF92FF928AEB93E00E9443
:100EF0002705409100035091010360910203709116
:100F00000303803151F5E0910703F0E0EE0FFF1F7E
:100F1000E85FFC4F80819181480F591F611D711D51
:100F2000413C81EE580784EE680771054CF440930C
:100F3000000350930103609302037093030364C0A2
:100F400080EC91EEA4EEB0E0809300039093010357
:100F5000A0930203B093030357C0803209F054C03A
:100F600020910703E22FF0E0EE0FFF1FE85FFC4F38
:100F7000808191816C01E12CF12C411551056105B5
:100F8000710529F04C155D056E057F0549F4109239
:100F9000000310920103109202031092030322C077
:100FA0004C195D096E097F0977FF14C06AE070E093
:100FB0000E94F00BCB010197A0E0B0E0809300030A
:100FC00090930103A0930203B09303032150209355
:100FD000070308C04093000350930103609302038A
:100FE000709303038091000390910103A091020389
:100FF000B0910303B7FF08C01092000310920103E1
:10100000109202031092030380900003909001035A
:10101000A0900203B0900303C501B4010E94AD0C7F
:101020006B017C0120E034E244E759E40E940A0CA1
:1010300020E030E040E85FE30E94390D87FD02C008
:1010400082E011C020E030E04AE754E4C701B60175
:101050000E940A0C20E030E040E85FE30E94390D76
:1010600087FD04C081E08093060302C0109206034E
:10107000B501A40187EA93E00E94670681E08093AE
:10108000BE03FF90EF90DF90CF90BF90AF909F9006
:101090008F900895CF92DF92EF92FF9260910603B6
:1010A00061110BC0609100037091010380910203F4
:1010B000909103030E94AD0C22C083E0689FB001B1
:1010C0001124072E000C880B990B0E94AD0C9B017C
:1010D000AC0160E070E080E291E40E94AB0D6B0136
:1010E0007C01609100037091010380910203909153
:1010F00003030E94AD0CA70196010E940A0CFF9009
:10110000EF90DF90CF9008950F931F9380911A0373
:10111000813009F067C081EA93E00E94570240E005
:1011200060E081EA93E00E94EE020E944A0802EC2D
:1011300013E023E047E00E94C10FBC0181EA93E085
:101140000E94010340E064E581EA93E00E94EE0220
:10115000E0910603F0E0EE0FFF1FEC5EFC4F6081B4
:10116000718181EA93E00E94010340E06FE581EA2A
:1011700093E00E94EE0263E573E081EA93E00E944F
:10118000010342E060E081EA93E00E94EE02E09118
:101190000703F0E0EE0FFF1FE85FFC4F4AE0B801E5
:1011A000808191810E94E10FBC0181EA93E00E945D
:1011B000010342E064E581EA93E00E94EE02E091DF
:1011C000C103F0E0EE0FFF1FE25FFC4F6081718111
:1011D00081EA93E00E94010381EA93E01F910F915D
:1011E0000C9427021F910F9108951F920F920FB632
:1011F0000F9211242F933F934F935F936F937F939D
:101200008F939F93AF93BF93EF93FF930E946D07CC
:10121000FF91EF91BF91AF919F918F917F916F91CE
:101220005F914F913F912F910F900FBE0F901F90A4
:1012300018951F920F920FB60F9211242F933F9380
:101240004F935F936F937F938F939F93AF93BF93CE
:10125000EF93FF930E94F508FF91EF91BF91AF913B
:101260009F918F917F916F915F914F913F912F91BE
:101270000F900FBE0F901F901895CF92DF92EF92B4
:10128000FF92C090CC03D090CD03E090CE03F090BD
:10129000CF030E943A04C61AD70AE80AF90A85E67B
:1012A000C816D104E104F10478F184E00E94080B2F
:1012B0008093CB039091CA038917E1F08093CA030E
:1012C000811118C080911A03813089F48091C10383
:1012D0008F5F833018F48093C10302C01092C10362
:1012E0006091C10370E087EA93E00E942F0781E0DC
:1012F0008093BE030E943A046093CC037093CD03A5
:101300008093CE039093CF03C090D203D090D303A9
:10131000E090D403F090D5030E943A04C61AD70A8D
:10132000E80AF90A85E6C816D104E104F10440F19F
:1013300087E00E94080B8093D1039091D003891716
:10134000A9F08093D003811111C080911A038130DC
:1013500051F4809107038F5F833018F48093070363
:1013600002C01092070381E08093BE030E943A04FA
:101370006093D2037093D3038093D4039093D503E7
:10138000FF90EF90DF90CF9008958E3018F4883062
:1013900028F03EC0843108F478C00895611110C06F
:1013A0004AB121E030E0B90102C0660F771F8A958B
:1013B000E2F7CB018095942F98239AB99BB111C085
:1013C000613091F44AB121E030E0B90102C0660F0A
:1013D000771F8A95E2F7CB01942F982B9AB99BB18E
:1013E000809589238BB90895623009F089C04AB18C
:1013F00021E030E0B90102C0660F771F8A95E2F75D
:10140000CB01962F909594239AB99BB1892BEACF63
:10141000611111C044B1885021E030E0B90102C02F
:10142000660F771F8A95E2F7CB018095942F98235A
:1014300094B995B112C0613091F444B1885021E063
:1014400030E0B90102C0660F771F8A95E2F7CB0141
:10145000942F982B94B995B18095892314C062304C
:1014600009F04EC044B1885021E030E0B90102C01B
:10147000660F771F8A95E2F7CB01962F90959423FC
:1014800094B995B1892B85B90895611111C047B1FF
:101490008E5021E030E0B90102C0660F771F8A95B7
:1014A000E2F7CB018095942F982397B998B112C099
:1014B000613091F447B18E5021E030E0B90102C0B3
:1014C000660F771F8A95E2F7CB01942F982B97B977
:1014D00098B18095892313C0623091F447B18E5042
:1014E00021E030E0B90102C0660F771F8A95E2F76C
:1014F000CB01962F9095942397B998B1892B88B9F1
:1015000008958E3018F4883028F02DC0843108F406
:1015100055C008952AB130E0082E02C035952795B0
:101520000A94E2F720FF73C0662379F0613009F076
:101530006EC04BB121E030E0B90102C0660F771FE9
:101540008A95E2F7CB01842B0CC04BB121E030E04F
:10155000B90102C0660F771F8A95E2F7CB0180952B
:1015600084238BB9089524B190E0089730E0082EC9
:1015700002C0359527950A94E2F720FF48C06623FC
:1015800079F0613009F043C045B121E030E0B901A4
:1015900002C0660F771F8A95E2F7CB01842B0CC03F
:1015A00045B121E030E0B90102C0660F771F8A958E
:1015B000E2F7CB018095842385B9089527B190E0A7
:1015C0000E9730E0082E02C0359527950A94E2F771
:1015D00020FF1DC0662371F06130C9F448B121E0DD
:1015E00030E0B90102C0660F771F8A95E2F7CB01A0
:1015F000842B0CC048B121E030E0B90102C0660F75
:10160000771F8A95E2F7CB018095842388B90895E6
:101610008E3028F4883048F429B130E009C0843194
:1016200080F426B130E08E5003C023B130E0885002
:10163000A90102C0559547958A95E2F7CA018170C4
:10164000089580E00895823021F5413069F040F03E
:10165000423099F04330D9F4809169008E7F10C0F8
:10166000809169008E7F03C08091690081608093C2
:101670006900809169008D7F08C080916900816058
:101680008093690080916900826080936900E89A84
:1016900025C0833019F5413069F040F0423099F0AF
:1016A0004330D9F4809169008B7F10C0809169002C
:1016B0008B7F03C080916900846080936900809172
:1016C0006900877F08C08091690084608093690009
:1016D00080916900886080936900E99A7894089500
:1016E00081EA93E00E947F0262E081EA93E00E9437
:1016F000CF0340E063E281EA93E00E94EE0266E5F8
:1017000073E081EA93E00E94010342E064E181EA30
:1017100093E00E94EE026DE573E081EA93E00E949F
:10172000010381EA93E00E94270268EE73E080E003
:1017300090E00E94450481EA93E00E94570281EA0A
:1017400093E00E9427020E94840841E06DE677E062
:1017500082E00E94230B41E06DE677E083E00E9487
:10176000230B62E084E00E94C50962E087E00E94EA
:10177000C50961E070E087EA93E00E941C0748EE2B
:1017800053E060E070E087EA93E00E94670660E063
:1017900070E087EA93E00E941C078091BE038823D3
:1017A00021F00E9484081092BE030E943D09F5CFEB
:1017B0008DEB93E00E94EA0543E062E08AEB93E060
:1017C0000E940E0520EC31EE44EE50E06AE087EA1C
:1017D00093E00E9419066CE381EA93E00C941A02EC
:1017E000AA1BBB1B51E107C0AA1FBB1FA617B70747
:1017F00010F0A61BB70B881F991F5A95A9F7809563
:101800009095BC01CD010895EE0FFF1F0590F49156
:10181000E02D09940E941E0C0C94FF0C0E94F80C01
:1018200058F00E94F10C40F029F45F3F29F00C942D
:10183000E80C51110C94330D0C94EE0C0E94100D19
:1018400068F39923B1F3552391F3951B550BBB27EF
:10185000AA2762177307840738F09F5F5F4F220F34
:10186000331F441FAA1FA9F335D00E2E3AF0E0E82B
:1018700032D091505040E695001CCAF72BD0FE2F75
:1018800029D0660F771F881FBB1F26173707480709
:10189000AB07B0E809F0BB0B802DBF01FF279358C1
:1018A0005F4F3AF09E3F510578F00C94E80C0C9491
:1018B000330D5F3FE4F3983ED4F3869577956795B3
:1018C000B795F7959F5FC9F7880F911D96958795F6
:1018D00097F90895E1E0660F771F881FBB1F621715
:1018E00073078407BA0720F0621B730B840BBA0BD3
:1018F000EE1F88F7E09508950E94180D88F09F5715
:1019000098F0B92F9927B751B0F0E1F0660F771F23
:10191000881F991F1AF0BA95C9F714C0B13091F019
:101920000E94320DB1E008950C94320D672F782F8C
:101930008827B85F39F0B93FCCF3869577956795DE
:10194000B395D9F73EF490958095709561957F4F4A
:101950008F4F9F4F0895E89409C097FB3EF49095F0
:101960008095709561957F4F8F4F9F4F9923A9F078
:10197000F92F96E9BB279395F69587957795679507
:10198000B795F111F8CFFAF4BB0F11F460FF1BC04B
:101990006F5F7F4F8F4F9F4F16C0882311F096E9DE
:1019A00011C0772321F09EE8872F762F05C066238C
:1019B00071F096E8862F70E060E02AF09A95660F45
:1019C000771F881FDAF7880F9695879597F90895FE
:1019D00097F99F6780E870E060E008959FEF80ECE2
:1019E000089500240A941616170618060906089585
:1019F00000240A9412161306140605060895092EEB
:101A00000394000C11F4882352F0BB0F40F4BF2B59
:101A100011F460FF04C06F5F7F4F8F4F9F4F089599
:101A200057FD9058440F551F59F05F3F71F047958F
:101A3000880F97FB991F61F09F3F79F08795089574
:101A4000121613061406551FF2CF4695F1DF08C093
:101A5000161617061806991FF1CF869571056105B0
:101A600008940895E894BB2766277727CB0197F958
:101A700008950E94350E08F48FEF08950E94510DCD
:101A80000C94FF0C0E94F10C38F00E94F80C20F02E
:101A9000952311F00C94E80C0C94EE0C11240C948A
:101AA000330D0E94100D70F3959FC1F3950F50E018
:101AB000551F629FF001729FBB27F00DB11D639F00
:101AC000AA27F00DB11DAA1F649F6627B00DA11DA6
:101AD000661F829F2227B00DA11D621F739FB00D4C
:101AE000A11D621F839FA00D611D221F749F3327BC
:101AF000A00D611D231F849F600D211D822F762F55
:101B00006A2F11249F5750409AF0F1F088234AF031
:101B1000EE0FFF1FBB1F661F771F881F915050409D
:101B2000A9F79E3F510580F00C94E80C0C94330DFE
:101B30005F3FE4F3983ED4F3869577956795B79524
:101B4000F795E7959F5FC1F7FE2B880F911D96953E
:101B5000879597F90895FA01EE0FFF1F309621053A
:101B60003105A1F16115710561F48038BFE39B0770
:101B700049F168949038810561F08038BFEF9B0788
:101B800041F099234AF5FF3FE1053105210519F19F
:101B9000E8940894E795D901AA2329F4AB2FBE2F26
:101BA000F85FD0F310C0FF5F70F4A695E0F7F73947
:101BB00050F019F0FF3A38F49F779F930DD00F90B3
:101BC00007FC9058089546F00C94EE0C60E070E02D
:101BD00080E89FE308954FE79F775F934F933F938C
:101BE0002F930E94CA0E2F913F914F915F910E94B7
:101BF0003E0D0C94030E29F416F00C94E80C0C9492
:101C0000320D0C94EE0C0E94180DA8F39638A0F734
:101C100007F80F92E8942BE33AEA48EB5FE70E945B
:101C2000540D0F920F920F924DB75EB70F920E9414
:101C3000120FE8E6F0E00E94590E4F915F91EF918C
:101C4000FF91E595EE1FFF1F49F0FE57E06844271E
:101C5000EE0F441FFA95E1F74195550B0E948C0E4B
:101C60000F9007FE0C94800E0895990F0008550FF1
:101C7000AA0BE0E8FEEF16161706E807F907C0F012
:101C800012161306E407F50798F0621B730B840B1A
:101C9000950B39F40A2661F0232B242B252B21F4F4
:101CA00008950A2609F4A140A6958FEF811D811D94
:101CB0000895DF93CF931F930F93FF92EF92DF92DC
:101CC0007B018C01689406C0DA2EEF010E94510D51
:101CD000FE01E894A5912591359145915591A6F382
:101CE000EF010E945E0FFE019701A801DA9469F7E7
:101CF000DF90EF90FF900F911F91CF91DF910895AA
:101D00009B01AC0160E070E080E89FE30C940A0C5A
:101D10000C94E80C0C94B30F0E94180DD8F399237F
:101D2000C9F3940F511DA3F39150504094F059F012
:101D3000882332F0660F771F881F91505040C1F7FB
:101D40009E3F51052CF7880F911D9695879597F921
:101D500008955F3FACF0983E9CF0BB278695779541
:101D60006795B79508F4B1609395C1F7BB0F58F725
:101D700011F460FFE8CF6F5F7F4F8F4F9F4FE3CF2E
:101D80000C94330D16F00C94B30F0C94EE0C689475
:101D90000C94E80C0E94180DA8F39923C1F3AEF33C
:101DA000DF93CF931F930F93FF92C92FDD278823D3
:101DB0002AF02197660F771F881FDAF720E030E0BE
:101DC00040E85FEB9FE3883920F0803E38F02196B1
:101DD0008F770E94470FE0E9F0E004C00E94470FB0
:101DE000EDEBF0E00E94590E8B01BE01EC01FB2EE1
:101DF0006F5771097595771F880B990B0E94AD0C71
:101E000028E132E741E35FE30E94510DAF2D9801D5
:101E1000AE01FF900F911F91CF91DF910E945E0F55
:101E20000C94FF0CFA01DC01AA0FBB1F9B01AC0153
:101E3000BF5728F4222733274427507820C0B751B2
:101E400090F4AB2F0024469537952795011CA39558
:101E5000D2F3002071F0220F331F441FB395DAF341
:101E60000ED00C94460F61307105A0E88A07B94680
:101E700030F49B01AC01662777278827907830964D
:101E800021F0208331834283538308955058BB2728
:101E9000AA270E945E0F0C94FF0C0E94F10C38F0F0
:101EA0000E94F80C20F039F49F3F19F426F40C94AA
:101EB000EE0C0EF4E095E7FB0C94E80CE92F0E9481
:101EC000100D58F3BA17620773078407950720F0BF
:101ED00079F4A6F50C94320D0EF4E0950B2EBA2F82
:101EE000A02D0B01B90190010C01CA01A001112420
:101EF000FF27591B99F0593F50F4503E68F11A16CC
:101F0000F040A22F232F342F4427585FF3CF46955C
:101F100037952795A795F0405395C9F77EF41F167E
:101F2000BA0B620B730B840BBAF09150A1F0FF0F48
:101F3000BB1F661F771F881FC2F70EC0BA0F621F34
:101F4000731F841F48F4879577956795B795F79524
:101F50009E3F08F0B0CF9395880F08F09927EE0FB9
:101F60009795879508959F3F31F0915020F487957C
:101F700077956795B795880F911D9695879597F9F1
:101F80000895EF920F931F93CF93DF93E80147FDDE
:101F900002C034E001C034E1042E000C550B57FFA1
:101FA00003C0519541955109E32E022F242FAE0114
:101FB0000E94FB0FCE01DF91CF911F910F91EF9007
:101FC0000895BB27FB015527AA27880F991FAA1F31
:101FD000A41710F0A41B83955051B9F7A05DAA3344
:101FE00008F0A95DA193009779F7B111B19311920F
:101FF000CB010C942D12A9E0B0E0E1E0F0E10C94EB
:1020000043126A01122FB02E2BE3201720F0FF2479
:10201000F394F00E02C02CE3F22E0F2D27E0AE0158
:102020004F5F5F4F0E945511BC014981842F897019
:10203000813031F0E1FC06C0E0FE06C090E205C050
:102040009DE203C09BE201C090E05E2D507143FF12
:102050003CC0911102C083E001C084E0811718F4F4
:10206000212F281B01C020E051110BC0F601822F47
:1020700030E2882319F031938150FBCFC20ED11C7E
:1020800020E0992329F0D6019C93F60131966F0147
:10209000C6010396E2FE0AC03EE4D6013C9341E449
:1020A00011964C93119712963C9306C03EE6F601AA
:1020B000308341E641833283FC01322F40E23323F7
:1020C00009F442C041933150FACF42FF44C091110C
:1020D00002C083E001C084E0811718F4212F281B7F
:1020E00001C020E051110BC0F601822F30E288239D
:1020F00019F031938150FBCFC20ED11C20E09923FF
:1021000029F0D6019C93F60131966F01C601039622
:10211000E2FE0BC039E4D6013C933EE411963C93B9
:10212000119736E412963C9307C039E6F6013083E6
:102130003EE6318336E63283FC01322F40E2332320
:1021400019F041933150FBCFFC01E20FF11D1082D9
:102150008EEF9FEFA6C021E030E0911102C020E099
:1021600030E0161617061CF4FB01319602C0E1E0C0
:10217000F0E02E0F3F1FBB2021F0EB2DF0E0319659
:1021800002C0E0E0F0E02E0F3F1FE12FF0E02E173D
:102190003F071CF4121B212F01C020E08E2D8871F7
:1021A00059F4F601822F30E2882319F031938150DF
:1021B000FBCFC20ED11C20E0992329F0D6019C93BD
:1021C000F60131966F0151110BC0F601822F90E399
:1021D000882319F091938150FBCFC20ED11C20E0CF
:1021E0000F2D060F9A81342F307144FF03C09133B5
:1021F00009F40150101624F4093018F008E001C069
:1022000001E0AB0177FF02C040E050E0FB01E41BBE
:10221000F50BA1E0B0E0AC0FBD1FEA0FFB1F8EE293
:10222000A82E4B01801A91080B2D10E011950195F5
:1022300011094F3FBFEF5B0721F4D601AC92119615
:102240006D01641775072CF08416950614F48181CE
:1022500001C080E3415051093196D60111967D01AC
:102260004017510724F0D6018C936701E2CF641721
:10227000750739F4963320F4953319F4311101C000
:1022800081E3F6018083F701822F90E2882319F021
:1022900091938150FBCFF701E20FF11D108280E096
:1022A00090E02996ECE00C945F12283008F027E0CB
:1022B0003327DA01990F311D87FD91600096610582
:1022C000710539F432602E5F3D9330E32A95E1F7D2
:1022D00008959F3F30F080387105610509F03C5F3B
:1022E0003C5F3D93913008F08068911DDF93CF9360
:1022F0001F930F93FF92EF92192F987F9695E92FD6
:1023000096959695E90FFF27EC5BFE4F99273327AB
:10231000EE24FF24A701E70105900894079428F410
:10232000360FE71EF81E491F511D660F771F881FC5
:10233000991F0694A1F70590079428F4E70EF81E5C
:10234000491F561FC11D770F881F991F661F0694CE
:10235000A1F70590079428F4F80E491F561FC71FD0
:10236000D11D880F991F661F771F0694A1F705904E
:10237000079420F4490F561FC71FD81F990F661FD7
:10238000771F881F0694A9F784911095177041F064
:10239000D695C79557954795F794E7941A95C1F741
:1023A000EAEEF0E06894159015913591659195915C
:1023B00005907FE27395E118F10A430B560BC90BA8
:1023C000D009C0F7E10CF11E431F561FC91FD01DD5
:1023D0007EF4703311F48A95E6CFE894015030F022
:1023E000080F0AF40027021708F4202F2395022F64
:1023F0007A3328F079E37D932A95E9F710C07D932D
:102400002A9589F6069497956795379517951794A9
:10241000E118F10A430B560BC90BD00998F023952C
:102420007E9173957A3308F070E37C932013B8F7AC
:102430007E9170617D9330F0839571E37D9370E3BD
:102440002A95E1F71124EF90FF900F911F91CF9102
:10245000DF91992787FD90950895DC01FC01672F96
:1024600071917723E1F7329704C07C916D9370836B
:102470006291AE17BF07C8F308952F923F924F9213
:102480005F926F927F928F929F92AF92BF92CF9204
:10249000DF92EF92FF920F931F93CF93DF93CDB70D
:1024A000DEB7CA1BDB0B0FB6F894DEBF0FBECDBF85
:1024B00009942A88398848885F846E847D848C8456
:1024C0009B84AA84B984C884DF80EE80FD800C815F
:1024D0001B81AA81B981CE0FD11D0FB6F894DEBF42
:0C24E0000FBECDBFED010895F894FFCFB2
:1024EC0000000000000000000000000000000000E0
:1024FC0000000000000000000000000000000000D0
:10250C0000000000000000000000000000000000BF
:10251C0000000000000000000000000000000000AF
:10252C00000000000000000000000000000000009F
:10253C00000000000000000000000000000000008F
:10254C00000000000000000000000000000000007F
:10255C00000000000000000000000000000000006F
:10256C00000000000000000000000000000000005F
:10257C00000000000000000000000000000000004F
:10258C00000000000000000000000000000000003F
:10259C00000000000000000000000000000000002F
:1025AC00000000000000000000000000000000001F
:1025BC00000000000000000000000000000000000F
:1025CC0000000000000000000000000000000000FF
:1025DC0000000000000000000000000000000000EF
:1025EC0000000000000000000000000000000000DF
:1025FC0000000000000000000000000000000000CF
:10260C0000000000000000000000000000000000BE
:10261C0000000000000000000000000000000000AE
:10262C00000000000000000000000000000000009E
:10263C00000000000000000000000000000000008E
:10264C00000000000000000000000000000000007E
:10265C00000000000000000000000000000000006E
:10266C00000000000000000000000000000000005E
:10267C00000000000000000000000000000000004E
:10268C00000000000000000000000000000000003E
:10269C00000000000000000000000000000000002E
:1026AC00000000000000000000000000000000001E
:1026BC00000000000000000000000000000000000E
:1026CC001F2040201F002141454B3100000000001D
:1026DC0000000000000000000000000000000000EE
:1026EC00E8030000010001020100640010276703E9
:1026FC006B036F037303750377030100020400037C
:10270C000001100302000003020100060004000691
:10271C000500200605040054657374696E67205526
:10272C005341525420636F6D6D756E6963617469AA
:10273C006F6E00487A005369676E616C0047656E76
:10274C00657261746F720053494E005452490053C4
:0A275C0051520020006B004D0000F8
:00000001FF
