:100000000C9434000C9446000C9446000C9446006A
:100010000C9446000C9446000C9446000C94460048
:100020000C9446000C9446000C9446000C94460038
:100030000C9446000C9446000C9446000C94460028
:100040000C9448000C9446000C9446000C94460016
:100050000C9446000C9446000C9446000C94460008
:100060000C9446000C94460011241FBECFEFD8E03C
:10007000DEBFCDBF21E0A0E0B1E001C01D92A23102
:10008000B207E1F70E943A020C9455020C9400006A
:100090001F920F920FB60F9211240F931F932F935D
:1000A0003F934F935F936F937F938F939F93EF93C0
:1000B000809100019091010180589F4F409106016D
:1000C0005091070160910801709109018A019B011B
:1000D0000F5F1F4F2F4F3F4F893EE3E09E0728F0F1
:1000E000885E9340B901A801F1CF909301018093FC
:1000F000000140930601509307016093080170933B
:100100000901EF919F918F917F916F915F914F9135
:100110003F912F911F910F910F900FBE0F901F9045
:10012000189514BC82E085BD81E080936E007894C0
:1001300008950E94910060910601709107018091DD
:100140000801909109010895CF92DF92EF92FF92FA
:100150006B017C010E949100809106019091070142
:10016000A0910801B09109018093020190930301CD
:10017000A0930401B09305010E94910080910601B3
:1001800090910701A0910801B091090140910201ED
:10019000509103016091040170910501841B950B3E
:1001A000A60BB70B8C159D05AE05BF0528F3FF9078
:1001B000EF90DF90CF9008958E3018F4883028F0BB
:1001C0003EC0843108F478C00895611110C04AB16E
:1001D00021E030E0B90102C0660F771F8A95E2F78F
:1001E000CB018095942F98239AB99BB111C06130AF
:1001F00091F44AB121E030E0B90102C0660F771FE7
:100200008A95E2F7CB01942F982B9AB99BB18095F0
:1002100089238BB90895623009F089C04AB121E081
:1002200030E0B90102C0660F771F8A95E2F7CB0173
:10023000962F909594239AB99BB1892BEACF61119F
:1002400011C044B1885021E030E0B90102C0660F0E
:10025000771F8A95E2F7CB018095942F982394B964
:1002600095B112C0613091F444B1885021E030E082
:10027000B90102C0660F771F8A95E2F7CB01942F70
:10028000982B94B995B18095892314C0623009F0F8
:100290004EC044B1885021E030E0B90102C0660F81
:1002A000771F8A95E2F7CB01962F9095942394B906
:1002B00095B1892B85B90895611111C047B18E5050
:1002C00021E030E0B90102C0660F771F8A95E2F79E
:1002D000CB018095942F982397B998B112C06130C3
:1002E00091F447B18E5021E030E0B90102C0660FB1
:1002F000771F8A95E2F7CB01942F982B97B998B185
:100300008095892313C0623091F447B18E5021E06B
:1003100030E0B90102C0660F771F8A95E2F7CB0182
:10032000962F9095942397B998B1892B88B9089501
:100330008E3018F4883028F02DC0843108F455C070
:1003400008952AB130E0082E02C0359527950A9409
:10035000E2F720FF73C0662379F0613009F06EC0C8
:100360004BB121E030E0B90102C0660F771F8A95DA
:10037000E2F7CB01842B0CC04BB121E030E0B90196
:1003800002C0660F771F8A95E2F7CB018095842320
:100390008BB9089524B190E0089730E0082E02C090
:1003A000359527950A94E2F720FF48C0662379F037
:1003B000613009F043C045B121E030E0B90102C02D
:1003C000660F771F8A95E2F7CB01842B0CC045B1ED
:1003D00021E030E0B90102C0660F771F8A95E2F78D
:1003E000CB018095842385B9089527B190E00E97BD
:1003F00030E0082E02C0359527950A94E2F720FFD9
:100400001DC0662371F06130C9F448B121E030E0CD
:10041000B90102C0660F771F8A95E2F7CB01842BE2
:100420000CC048B121E030E0B90102C0660F771F6F
:100430008A95E2F7CB018095842388B908958E30A0
:1004400028F4883048F429B130E009C0843180F4C0
:1004500026B130E08E5003C023B130E08850A901AE
:1004600002C0559547958A95E2F7CA0181700895B3
:1004700080E008950E94910061E088E00E94DC0025
:1004800061E088E00E94980168EE73E080E090E00F
:100490000E94A40060E088E00E94980168EE73E08A
:0E04A00080E090E00E94A400EBCFF894FFCF24
:00000001FF
