:100000000C9434000C9451000C9451000C94510049
:100010000C9451000C9451000C9451000C9451001C
:100020000C9451000C9451000C9451000C9451000C
:100030000C9451000C9451000C9451000C945100FC
:100040000C9453000C9451000C9451000C94E70054
:100050000C9451000C9451000C9451000C945100DC
:100060000C9451000C94510011241FBECFEFD8E026
:10007000DEBFCDBF18E0A0E0B1E0E4E8F5E002C0EB
:1000800005900D92AC32B107D9F728E0ACE2B8E0A8
:1000900001C01D92A933B207E1F70E94BD020C9482
:1000A000C0020C9400001F920F920FB60F92112401
:1000B0000F931F932F933F934F935F936F937F9370
:1000C0008F939F93EF9380912C0890912D088058E7
:1000D0009F4F4091320850913308609134087091DD
:1000E00035088A019B010F5F1F4F2F4F3F4F893EFD
:1000F000E3E09E0728F0885E9340B901A801F1CFA4
:1001000090932D0880932C08409332085093330825
:100110006093340870933508EF919F918F917F9190
:100120006F915F914F913F912F911F910F910F9080
:100130000FBE0F901F90189514BC82E085BD81E022
:1001400080936E00789408950E949C00609132081C
:100150007091330880913408909135080895CF92BA
:10016000DF92EF92FF926B017C010E949C008091D4
:10017000320890913308A0913408B09135088093EB
:100180002E0890932F08A0933008B09331080E9456
:100190009C008091320890913308A0913408B0916E
:1001A000350840912E0850912F08609130087091C9
:1001B0003108841B950BA60BB70B8C159D05AE055E
:1001C000BF0528F3FF90EF90DF90CF9008951F9226
:1001D0000F920FB60F9211248F939F93EF93FF937B
:1001E000E0913708F09138088081882361F080938E
:1001F000C60080913708909138080196909338088E
:100200008093370802C010923608FF91EF919F91BA
:100210008F910F900FBE0F901F901895F894109229
:10022000C50087E68093C4001092C00088E68093E2
:10023000C100E2ECF0E080818660808378940895CC
:10024000CF93C82F0E940E018091C00085FFFCCF84
:10025000C093C600CF910895909136089111FECFBA
:100260008093C60008952091360821110BC0FC012F
:10027000909338088093370880810E94200181E0A4
:100280008093360808958FE098E00C94330161E084
:1002900088E00E945F0161E088E00E941B0268EE36
:1002A00073E080E090E00E94AF0060E088E00E9490
:1002B0001B0268EE73E080E090E00C94AF008E309B
:1002C00018F4883028F03EC0843108F478C00895CE
:1002D000611110C04AB121E030E0B90102C0660FDF
:1002E000771F8A95E2F7CB018095942F98239AB9CE
:1002F0009BB111C0613091F44AB121E030E0B90105
:1003000002C0660F771F8A95E2F7CB01942F982BD6
:100310009AB99BB1809589238BB90895623009F011
:1003200089C04AB121E030E0B90102C0660F771FF1
:100330008A95E2F7CB01962F909594239AB99BB1B9
:10034000892BEACF611111C044B1885021E030E01F
:10035000B90102C0660F771F8A95E2F7CB0180953D
:10036000942F982394B995B112C0613091F444B19F
:10037000885021E030E0B90102C0660F771F8A95EE
:10038000E2F7CB01942F982B94B995B180958923EE
:1003900014C0623009F04EC044B1885021E030E012
:1003A000B90102C0660F771F8A95E2F7CB01962F3D
:1003B0009095942394B995B1892B85B908956111CD
:1003C00011C047B18E5021E030E0B90102C0660F84
:1003D000771F8A95E2F7CB018095942F982397B9E0
:1003E00098B112C0613091F447B18E5021E030E0F5
:1003F000B90102C0660F771F8A95E2F7CB01942FEF
:10040000982B97B998B18095892313C0623091F4E5
:1004100047B18E5021E030E0B90102C0660F771F6E
:100420008A95E2F7CB01962F9095942397B998B1CE
:10043000892B88B908958E3018F4883028F02DC0A3
:10044000843108F455C008952AB130E0082E02C066
:10045000359527950A94E2F720FF73C0662379F05B
:10046000613009F06EC04BB121E030E0B90102C04B
:10047000660F771F8A95E2F7CB01842B0CC04BB136
:1004800021E030E0B90102C0660F771F8A95E2F7DC
:10049000CB01809584238BB9089524B190E008970F
:1004A00030E0082E02C0359527950A94E2F720FF28
:1004B00048C0662379F0613009F043C045B121E0BE
:1004C00030E0B90102C0660F771F8A95E2F7CB01D1
:1004D000842B0CC045B121E030E0B90102C0660FA9
:1004E000771F8A95E2F7CB018095842385B908951B
:1004F00027B190E00E9730E0082E02C03595279581
:100500000A94E2F720FF1DC0662371F06130C9F440
:1005100048B121E030E0B90102C0660F771F8A952B
:10052000E2F7CB01842B0CC048B121E030E0B901E7
:1005300002C0660F771F8A95E2F7CB01809584236E
:1005400088B908958E3028F4883048F429B130E015
:1005500009C0843180F426B130E08E5003C023B14D
:1005600030E08850A90102C0559547958A95E2F779
:10057000CA018170089580E008950E944301FFCF71
:04058000F894FFCF1D
:100584000A0A4B6F616C6173206172652066756342
:100594006B696E6720686F727269626C6520616E48
:1005A400696D616C732E2054686579206861766585
:1005B400206F6E65206F662074686520736D616CB2
:1005C4006C65737420627261696E20746F20626F4F
:1005D400647920726174696F73206F6620616E792B
:1005E400206D616D6D616C2C206164646974696F48
:1005F4006E616C6C79202D2074686569722062725A
:1006040061696E732061726520736D6F6F74682EFB
:10061400204120627261696E20697320666F6C6488
:10062400656420746F20696E6372656173652074FC
:100634006865202073757266616365206172656107
:1006440020666F72206E6575726F6E732E20496618
:1006540020796F752070726573656E742061206BEC
:100664006F616C612077697468206C65617665736D
:1006740020706C75636B65642066726F6D206120F9
:100684006272616E63682C206C616964206F6E20F5
:10069400612020666C617420737572666163652CD9
:1006A40020746865206B6F616C612077696C6C20C5
:1006B4006E6F74207265636F676E69736520697409
:1006C40020617320666F6F642E2054686579206101
:1006D400726520746F6F20746869636B20746F2077
:1006E400616461707420746865697220666565640C
:1006F400696E6720206265686176696F757220741F
:100704006F20636F70652077697468206368616E19
:1007140067652E20496E206120726F6F6D206675AB
:100724006C6C206F6620706F74656E7469616C20E8
:10073400666F6F642C20746865792063616E206C29
:1007440069746572616C6C7920737461727665206A
:10075400746F202064656174682E20546869732066
:100764006973206E6F742074686520746F6B656E96
:10077400206F6620616E20616E696D616C20746803
:1007840061742069732077696E6E696E6720617485
:10079400206C6966652E20537065616B696E6720F5
:1007A4006F662073747570696469747920616E640E
:1007B4002020666F6F642C206F6E65206F66207436
:1007C4006865206C696B656C7920726561736F6E06
:1007D4007320666F72207468656972207072696D27
:1007E400697469766520627261696E732069732029
:1007F4007468652066616374207468617420616440
:10080400646974696F6E616C6C7920746F20206206
:1008140065696E6720706F69736F6E6F75732C20D6
:10082400657563616C7970747573206C6561766548
:10083400732028746865206F6E6C79207468696E03
:10084400672074686579206561742920686176651C
:1008540020616C6D6F7374206E6F206E7574726995
:1008640074696F6E616C2076616C75652E205468B6
:1008740065792063616E2774206166666F726420F7
:1008840074686520657874726120656E6572677935
:1008940020746F207468696E6B2C207468657920ED
:1008A400736C656570206D6F7265207468616E206D
:1008B400383025206F662074686569722066756318
:1008C4006B696E67206C697665732E2020576865A6
:1008D4006E207468657920617265206177616B654B
:1008E40020616C6C207468657920646F20697320C2
:1008F4006561742C207368697420616E64206F6371
:10090400636173696F6E616C6C7920736372656186
:100914006D206C696B65206675636B696E67207307
:100924006174616E2E20426563617573652065751F
:1009340063616C7970747573206C6561766573207E
:10094400686F6C642073756368206C6974746C657B
:10095400206E7574726974696F6E616C2076616C57
:1009640075652C206B6F616C6173206861766520FE
:10097400746F206665726D656E7420746865206C92
:10098400656176657320696E2074686569722020DC
:100994006775747320666F722064617973206F6E5B
:1009A40020656E642E20556E6C696B6520746865D5
:1009B400697220627261696E732C20746865792093
:1009C4006861766520746865206C6172676573740C
:1009D4002068696E642067757420746F20626F6488
:1009E4007920726174696F206F6620616E79206D61
:1009F400616D6D616C2E204D616E79206865726247
:100A040069766F726F7573206D616D6D616C7320A3
:100A1400686176652061646170746174696F6E7376
:100A240020746F20636F7065207769746820686133
:100A340072736820706C616E74206C6966652074D2
:100A4400616B696E672069747320746F6C6C20200D
:100A54006F6E2074686569722074656574682C20F3
:100A6400726F64656E747320666F7220696E73743E
:100A7400616E6365206861766520746565746820BD
:100A840074686174206E657665722073746F70206B
:100A940067726F77696E672C20736F6D6520616E66
:100AA400696D616C73206F6E6C7920686176652066
:100AB4007465657468206F6E207468656972206C53
:100AC4006F776572206A61772C206772696E64693A
:100AD4006E6720706C616E74206D61747465722031
:100AE4006F6E20626F6E7920706C6174657320691B
:100AF4006E2074686520746F7073206F662074684C
:100B0400656972206D6F757468732C206F746865E5
:100B14007273206861766520656E6C6172676564C6
:100B2400206D6F6C617273207468617420646973E2
:100B34007472696275746520746865207765617282
:100B440020616E6420627265616B20646F776E2031
:100B5400706C616E74206D6174746572206D6F7257
:100B6400652020656666696369656E746C792E2EEE
:100B74002E204B6F616C617320617265206E6F2053
:100B8400657863657074696F6E2C207768656E2074
:100B940074686569722074656574682065726F6431
:100BA4006520646F776E20746F206E6F7468696E51
:100BB400672C2074686579207265736F6C76652084
:100BC4002074686520736974756174696F6E20623E
:100BD40079207374617276696E6720746F2064651E
:100BE4006174682C2062656361757365207468653F
:100BF40079277265206675636B696E672074657208
:100C04007269626C6520616E696D616C732E20205F
:100C14004265696E67206D616D6D616C732C206B2C
:100C24006F616C61732072616973652074686569B2
:100C340072206A6F657973206F6E206D696C6B200A
:100C44002861646D69747465646C792C206F6E65B9
:100C5400206F6620746865206C6F77657374206DEF
:100C6400696C6B207969656C647320746F202072E1
:100C74006174696F2E2E2E20546865726527732067
:100C840061207472656E642068657265292E005453
:100C9400657374696E6720555341525420636F6DB8
:0C0CA4006D756E69636174696F6E00000D
:00000001FF
