:100000000C9434000C9451000C9451000C94510049
:100010000C9451000C9451000C9451000C9451001C
:100020000C9451000C9451000C9451000C9451000C
:100030000C9451000C9451000C9451000C945100FC
:100040000C9453000C9451000C9451000C94E70054
:100050000C9451000C9451000C9451000C945100DC
:100060000C9451000C94510011241FBECFEFD8E026
:10007000DEBFCDBF11E0A0E0B1E0E6E6F6E002C0F1
:1000800005900D92AE33B107D9F721E0AEE3B1E0B0
:1000900001C01D92A535B207E1F70E94F0020C9451
:1000A00031030C9400001F920F920FB60F9211248F
:1000B0000F931F932F933F934F935F936F937F9370
:1000C0008F939F93EF9380913E0190913F018058D1
:1000D0009F4F4091440150914501609146017091BC
:1000E00047018A019B010F5F1F4F2F4F3F4F893EF2
:1000F000E3E09E0728F0885E9340B901A801F1CFA4
:1001000090933F0180933E014093440150934501F9
:100110006093460170934701EF919F918F917F917A
:100120006F915F914F913F912F911F910F910F9080
:100130000FBE0F901F90189514BC82E085BD81E022
:1001400080936E00789408950E949C006091440111
:100150007091450180914601909147010895CF9299
:10016000DF92EF92FF926B017C010E949C008091D4
:10017000440190914501A0914601B09147018093BF
:10018000400190934101A0934201B09343010E942A
:100190009C008091440190914501A0914601B0914D
:1001A000470140914001509141016091420170919D
:1001B0004301841B950BA60BB70B8C159D05AE0553
:1001C000BF0528F3FF90EF90DF90CF9008951F9226
:1001D0000F920FB60F9211242F933F934F935F937B
:1001E0006F937F938F939F93AF93BF93EF93FF93FF
:1001F000E0914901F0914A018181882369F0808171
:100200008093C6008091490190914A010196909394
:100210004A018093490107C08091C1008F7D80937E
:10022000C100109248016AE070E080E090E00E9416
:10023000AF00FF91EF91BF91AF919F918F917F910F
:100240006F915F914F913F912F910F900FBE0F9043
:100250001F901895F8941092C50083E38093C40012
:100260001092C00088E28093C100E2ECF0E080814F
:100270008660808378940895CF93C82F0E942A01C6
:100280008091C00085FFFCCFC093C600CF91089538
:10029000CF93DF93EC010E942A01809148018111E4
:1002A0000CC081E080934801D0934A01C09349017A
:1002B0008881DF91CF910C943C01DF91CF9108951B
:1002C00080E091E00C94480161E088E00E947C01AC
:1002D00061E088E00E94380268EE73E080E090E020
:1002E0000E94AF0060E088E00E94380268EE73E090
:1002F00080E090E00C94AF008E3018F4883028F045
:100300003EC0843108F478C00895611110C04AB12C
:1003100021E030E0B90102C0660F771F8A95E2F74D
:10032000CB018095942F98239AB99BB111C061306D
:1003300091F44AB121E030E0B90102C0660F771FA5
:100340008A95E2F7CB01942F982B9AB99BB18095AF
:1003500089238BB90895623009F089C04AB121E040
:1003600030E0B90102C0660F771F8A95E2F7CB0132
:10037000962F909594239AB99BB1892BEACF61115E
:1003800011C044B1885021E030E0B90102C0660FCD
:10039000771F8A95E2F7CB018095942F982394B923
:1003A00095B112C0613091F444B1885021E030E041
:1003B000B90102C0660F771F8A95E2F7CB01942F2F
:1003C000982B94B995B18095892314C0623009F0B7
:1003D0004EC044B1885021E030E0B90102C0660F40
:1003E000771F8A95E2F7CB01962F9095942394B9C5
:1003F00095B1892B85B90895611111C047B18E500F
:1004000021E030E0B90102C0660F771F8A95E2F75C
:10041000CB018095942F982397B998B112C0613081
:1004200091F447B18E5021E030E0B90102C0660F6F
:10043000771F8A95E2F7CB01942F982B97B998B143
:100440008095892313C0623091F447B18E5021E02A
:1004500030E0B90102C0660F771F8A95E2F7CB0141
:10046000962F9095942397B998B1892B88B90895C0
:100470008E3018F4883028F02DC0843108F455C02F
:1004800008952AB130E0082E02C0359527950A94C8
:10049000E2F720FF73C0662379F0613009F06EC087
:1004A0004BB121E030E0B90102C0660F771F8A9599
:1004B000E2F7CB01842B0CC04BB121E030E0B90155
:1004C00002C0660F771F8A95E2F7CB0180958423DF
:1004D0008BB9089524B190E0089730E0082E02C04F
:1004E000359527950A94E2F720FF48C0662379F0F6
:1004F000613009F043C045B121E030E0B90102C0EC
:10050000660F771F8A95E2F7CB01842B0CC045B1AB
:1005100021E030E0B90102C0660F771F8A95E2F74B
:10052000CB018095842385B9089527B190E00E977B
:1005300030E0082E02C0359527950A94E2F720FF97
:100540001DC0662371F06130C9F448B121E030E08C
:10055000B90102C0660F771F8A95E2F7CB01842BA1
:100560000CC048B121E030E0B90102C0660F771F2E
:100570008A95E2F7CB018095842388B908958E305F
:1005800028F4883048F429B130E009C0843180F47F
:1005900026B130E08E5003C023B130E08850A9016D
:1005A00002C0559547958A95E2F7CA018170089572
:1005B00080E008958CE191E00E94480140E16BE405
:1005C00071E088E490E00E9407030E94480188E4FB
:1005D0008093B80084E08093BC001092B900089525
:1005E0008DE291E00E9448010E94DA0288E391E0E6
:1005F0000E94480188E391E00E94480188E391E06D
:100600000E94480188E391E00E944801FFCFBB2788
:10061000FB015527AA27880F991FAA1FA41710F0BE
:10062000A41B83955051B9F7A05DAA3308F0A95DCA
:10063000A193009779F7B111B1931192CB010C946A
:100640002103DC01FC01672F71917723E1F73297D9
:1006500004C07C916D9370836291AE17BF07C8F39D
:060660000895F894FFCF9D
:1006660054657374696E6720555341525420636F05
:100676006D6D756E69636174696F6E005365747430
:10068600696E67205457425220746F200074776950
:0E06960020696E697420200074657374000082
:00000001FF
